S01400002E2E2F62696E2F536F727469652E6865780F
S1131000973100009381013297340000938484B3B4
S113101017340000130414B16F00C000230004004F
S113102013041400E31C94FE17340000130484AF6B
S113103097340000938404AF138900006F0000010B
S11310400325040013044400E7000500E31A94FE9A
S10B1050930009006F00400049
S1131058130101FE232C81001305F00F37440F0000
S1131068232A91002328210123263101232E11004C
S113107813091000EF10C0551304042493047000DE
S113108893090008EF000052930700003317F90092
S11310982308E0F0030710B09300C0FFB3F080000A
S11310A8938040009380C0FFE39E00FE938717005F
S11310B8E39E97FC9307000033D7F9402308E0F038
S11310C89300C0FFB3F08000938040009380C0FF7A
S11310D8E39E00FE93871700E39097FE6FF09FFA54
S11310E8130101FF2320210113090500130500B48E
S11310F823261100232481002322910013040600CF
S113110893840500EF10004A93053000130500B4DA
S1131118EF10C0479355090193F5F50F130500B473
S1131128EF10C0469355890093F5F50F130500B4E5
S1131138EF10C0459375F90F130500B4EF1000457F
S1131148B304940063109402032481008320C10033
S11311588324410003290100130500B4130101018C
S11311686F1000469305F00F130500B4EF1000420A
S11311782300A400130414006FF0DFFC130101FF23
S11311882324810013040500130500B42326110049
S1131198232291002320210193840500EF1080402D
S11311A893053000130500B4EF10403E9355040135
S11311B893F5F50F130500B4EF10403D93558400E3
S11311C893F5F50F130500B4EF10403C9375F40F35
S11311D8130500B4EF10803B1304000037490000E6
S11311E863109402032481008320C10083244100F6
S11311F803290100130500B4130101016F10403CD9
S11312089305F00F130500B4EF10403813060500DA
S1131218930504001305C9AAEF10C027130414008A
S11312286FF01FFC3307B500B70704006374F700B9
S11312386FF0DFF467800000130101FF23248100AD
S113124813040500130500B423261100EF1080359C
S1131258930560006314040093054000130500B46B
S1131268EF10C032032481008320C100130500B4A9
S1131278130101016F10C034130101FF130500B4F9
S11312882326110023248100EF10C0319305500058
S1131298130500B4EF10802F9305F00F130500B465
S11312A8EF10C02E13040500130500B4EF104031ED
S11312B81375F40F8320C100032481001301010175
S11312C867800000130101FE232A9100930405009E
S11312D823282101232631012324410123225101FA
S11312E823206101930A06001389050093D9040198
S11312F813DA840013051000371B0000232C810027
S1131308232E110093F9F90FEFF01FF3137AFA0F54
S113131833892A0113840A0093F4F40F130B8BBB4B
S11313286312890413050000EFF01FF1EFF0DFF4F6
S1131338032481018320C10183244101032901017C
S11313488329C100032A8100832A4100032B010059
S11313589305050037450000130505AD1301010287
S11313686F104013130500B4EF10C0239305F00A5F
S1131378130500B4EF10802163948A029385090051
S1131388130500B4EF10802093050A00130500B478
S1131398EF10C01F93850400130500B4EF10001F5D
S11313A883450400130500B4EF10401E130500B470
S11313B8EF1000219300C0FFB3F060019380400058
S11313C89380C0FFE39E00FE130414006FF05FF5E2
S11313D8130101FF232481001304050013051000E1
S11313E823261100EFF05FE5130500B4EF10801B0E
S11313F893050002130500B4EF1040199355040136
S113140893F5F50F130500B4EF10401893558400B5
S113141893F5F50F130500B4EF1040179375F40F07
S1131428130500B4EF108016130500B4EF1040192B
S1131438032481008320C100130500001301010166
S11314486FF09FDF130101FF2324810013040500BB
S11314581305100023261100EFF01FDE130500B456
S1131468EF10401493052005130500B4EF10001283
S11314789355040193F5F50F130500B4EF1000110B
S11314889355840093F5F50F130500B4EF1000107D
S11314989375F40F130500B4EF10400F130500B44F
S11314A8EF100012032481008320C10013050000FB
S11314B8130101016FF05FD8130101FF1305100038
S11314C823261100EFF05FD7130500B4EF10800D49
S11314D893050006130500B4EF10400B130500B480
S11314E8EF10000E8320C100130500001301010151
S11314F86FF09FD4130101FF130500B423261100D4
S1131508232481002322910023202101EF10800944
S113151893050009130500B4EF1040079305000074
S1131528130500B4EF10800693050000130500B4FA
S1131538EF10C00593050000130500B4EF10000573
S11315481304000037490000930440019305F00F89
S1131558130500B4EF108003130605009305040077
S1131568130509AC13041400EF00D072E31094FEC1
S1131578032481008320C10083244100032901003E
S1131588130500B4130101016F108003830710B021
S113159893F71700E38C07FE030500B01375F50FE6
S11315A867800000830710B093F717006382072051
S11315B8130101FE232E1100232C8100232A9100FC
S11315C823282101EFF09FFC1305E5F91375F50FA6
S11315D89307500163E4A708B74700009387879BE4
S11315E8131525003305F5008327050067800700D8
S11315F8EFF0DFF993070007631EF5061306C10031
S11316089305400013050000EFF09FAD1306410059
S11316189305200013054000EFF09FAC13068100EA
S11316289305200013056000EFF09FAB8325C100EC
S1131638832681000326410037450000130505A1D0
S1131648EF0050658327810083254100130560005E
S113165893871700B385B740EFF0DFBC8320C1013F
S11316680324810183244101032901011301010297
S11316786780000093076006E312F5FE93050002F5
S113168813050000EFF09FAF6FF05FFD37460000D1
S113169893070000930506B313070001B386B70048
S11316A82380F60093871700E39AE7FE13050000EA
S11316B8130606B393050001EFF0DFC037450000B9
S11316C81305C5A3EF00105D6FF05FF9EFF01FEC91
S11316D893072006631CF50013050000EFF09FD65E
S11316E837450000130585A46FF0DFFD9307300725
S11316F8631CF50013050000EFF09FCD374500008B
S1131708130585A56FF01FFC93073006E318F5F45D
S1131718EFF09FDA37450000130585A66FF09FFAAE
S11317289305C10013058100EFF0DFDC6FF01FF3B0
S113173837450000130585A7EF00D05593070040EF
S113174837040008B704000133F1870033619100BE
S113175893000000678007006FF05FF0B734000063
S113176813040040374900009384C4CD03460400A1
S113177893050400130589A813041400EF0090517D
S1131788E31694FE930700FE8385070013071000F1
S113179893F5F50F2380E700130700002380E70083
S11317A837450000130505AAEF00D04E6FF01FEB74
S11317B867800000130101FF232481002326110000
S11317C89307A000130405006318F500930510009F
S11317D81305D000EF0050561305040003248100BC
S11317E88320C10093051000130101016F00D05438
S11317F8130101EB2322911423202115232E3113E5
S11318082326111423248114232C4113232A51132E
S1131818232861132326711323248113232291136C
S11318282320A113232EB1112326A100938405009C
S1131838130906009389060063180500B7470000DA
S1131848938707B02326F100B747000003A787AEA4
S113185883A7C7AE13040000232EE1002320F1025E
S113186883270102232CE10223240100232EF10201
S1131878B747000003A8C7AF83A787AF2326010390
S11318882324F102B747000003A707AE83A747AE96
S11318982320E1042322F104832BC100930A50027C
S11318A8B30774412322F10083274100138A1B00E4
S11318B80345FAFFB387FB002320F10013840700D4
S11318C86316550B832781006394070A9305000266
S11318D8930C00009306000013060000130D00008B
S11318E813070000232C0100130C0000930A0000C6
S11318F8930D0000130B00002328B1009302600627
S113190813080007930850071303A006130EE006F4
S1131918930EE002130FA0029303300293051A00FA
S1131928034A0A002326B100630C5A7463E242197D
S11319386308DA0563E04E0B6300EA2B63604F0922
S113194863067A0493075002630AFA268327410040
S11319583384FB008327C100E3E4FB2E93071000C4
S1131968232231012324F1006F000032E304052E01
S113197893050900E7800400930B0A006FF0DFF277
S113198893071000032AC1006FF05FF99305100054
S1131998232CB1006FF01FFF930500032328B10027
S11319A86FF05FFE930A05006FF0DFFD130D100062
S11319B86FF05FFD130B10006FF0DFFC9305B002AE
S11319C8E302BAFC9305D002E312BAF8130C100030
S11319D86FF05FFB9305900363EC450B93051003CD
S11319E8637ABA0093050003E312BAF6E38607FAAA
S11319F8130A0003130500009305A00023267106AB
S1131A082324E1072322D1072320C107232E6104BD
S1131A18232C1105232A0105232851042326E10434
S1131A282324F104232AC1022328D102EF101070C1
S1131A388327C10033054501930F900003CA0700AB
S1131A48938717002322F10293050AFD130505FD68
S1131A588326010303264103832781040327C10442
S1131A688322010503284105832881050323C10531
S1131A78032E0106832E4106032F81068323C10604
S1131A8863F4BF18E38007F2930C05006FF09FEF2F
S1131A98930730066300FA1893074006630AFA02AC
S1131AA893078005E314FAEA930710006F00800A8D
S1131AB8630A0A216362480563066A18636E430170
S1131AC8930580066308BA1693079006E310FAE8AC
S1131AD8930BA0006F00C00A630ACA17636C4E39DF
S1131AE89305C006E314BAE6E3060BEC930D0B006A
S1131AF8130B00006FF01FE963041A3963EE4803FF
S1131B08930510076308BA2A13073007E310EAE4B9
S1131B1803AA0900138749002322E10063160A0077
S1131B28374A0000130ACAB093090000639E072AC3
S1131B3893090A006F00C028930590076300BA044C
S1131B489305A0076304BA3293078007E310FAE009
S1131B5893070000930B0001630A06329389790006
S1131B6893F989FF03AD090083AD49001387890000
S1131B782322E100130B00006F000017930B0001F0
S1131B88630806349389790093F989FF03AD090042
S1131B9883AD4900938789002322F10063DE0D3663
S1131BA8330DA041B337A001B30DB041B38DFD404F
S1131BB8130B1000930700006F000013930509002E
S1131BC813055002E7800400832701002322310112
S1131BD8138417006F00400B9385490003A509007F
S1131BE8639E0700930A050093890500E35C05D802
S1131BF8134C1C00B30AA0406FF0DFD8930C050007
S1131C08938905006FF01FD8832541022326B1006C
S1131C186FF09FDE03A50900938749009305090027
S1131C282322F100E78004008327010013841700AE
S1131C386F008005E30C0DD613070D00130D00008B
S1131C486FF05FD4130610006FF0DFD3938549005B
S1131C582322B10083A70900630C060003270100AF
S1131C6823A0E7001357F74123A2E7006F00C00140
S1131C7863800D020327010023A0E7001357F741EF
S1131C8823A2E70023240100832941006FF0DFC069
S1131C9863080B000327010023A0E7006FF09FFEF1
S1131CA8E39A06FE63080D00035701002390E7003A
S1131CB86FF05FFDE30007FE034701002380E700A0
S1131CC86FF05FFC93B71A0003AD0900232CF100F1
S1131CD8938749002322F100930D00009307000025
S1131CE8130B0000930B0001930901072308010655
S1131CF893080D0013830D001388090013DAFB41C0
S1131D08130E900013860B0093060A00138508002F
S1131D1893050300232801052326C1052324F10480
S1131D28232A110323286102EF10D03F832841039B
S1131D38032301031377F50F13860B00138508009B
S1131D489305030093060A002322E102EF10103DD5
S1131D5803274102032EC1049308050013830500D9
S1131D688327810403280105636CEE1A130707030C
S1131D781377F70F938919002380E90033E5A50049
S1131D88E31205F88327810133880941130700000A
S1131D986384071AB367BD016380071A9307800039
S1131DA8638AFB18930700016398FB181307200044
S1131DB86F008018930D10006FF0DFBC9389190031
S1131DC883C70900E39C07FEB3894941B38A3A41B2
S1131DD863160C046354500513840A00130BF0FFB4
S1131DE86F00800293891900E3D299FFB3073A017F
S1131DF883C70700E38C07FC6FF0DFFE03250101AE
S1131E0893050900E78004001304F4FFE31864FF52
S1131E188327010033845701930AF0FF330B3A01F7
S1131E286F004001130A1A000345FAFF93050900DD
S1131E38E7800400E3186AFF33043401E3040CE484
S1131E48E35450E593890A00130AF0FF6F00000178
S1131E580325010193050900E78004009389F9FF2C
S1131E68E39849FF330454016FF01FE2930610000E
S1131E786FF05FB193070000930B80006FF0DFCD24
S1131E8893070000930BA0006FF01FCDE3980DCCCF
S1131E98138649002322C10063080B0003AD09001F
S1131EA8930D00006FF01FCD6386060003AD090093
S1131EB86F00C00063080D0003DD0900930D0000E6
S1131EC86FF09FE2E30407FE03CD09006FF01FFFE4
S1131ED8E39A0DCA938749002322F10063080B0093
S1131EE803AD0900935DFD416FF05FCB83A7090043
S1131EF863860600138D07006FF0DFFE63080D008C
S1131F08139D0701135D0D416FF0DFFDE30407FE28
S1131F1813FDF70F930D0000930700006FF09FC5A2
S1131F2863860700130777036FF09FE413077705A9
S1131F386FF01FE40327810163040B0013071700E4
S1131F48631A0C0083260101930700036394F600C7
S1131F58B38CEA4093870C0063D40C019307080000
S1131F68B387E700B38AFA40B38C0C4163140C02BC
S1131F7813840A00634C800893870A0063D40A0018
S1131F889307000003270100938AFAFFB38AFA40F3
S1131F983304F700630A0B00930509001305D00204
S1131FA8E780040013041400832781016382070275
S1131FB8336DBD01630E0D00930780006392FB0629
S1131FC89305090013050003E780040013041400B3
S1131FD8138A0C00634A400763D40C00930C000076
S1131FE8B38C8C00B38C990103C5090033843C413C
S1131FF86316050693890A00E3060CC8634830078C
S1132008E3D20AE6930A00006FF0DFE593050900BE
S113201813050002E78004001304F4FF6FF09FF532
S113202893070001E396FBFA9305090013050003DF
S1132038E78004009305090013058007E78004007E
S1132048130424006FF0DFF8930509001305000357
S1132058E7800400130AFAFF6FF0DFF7930509001D
S11320689389F9FFE78004006FF01FF893050900CE
S113207813050002E78004009389F9FF6FF01FF845
S11320889389790093F989FF9387890003AA090042
S113209883A94900130600009306000013050A00EB
S11320A8938509002322F100EF00503E63100502D6
S11320B89305090013050003E780040013041000C6
S11320C883270100338487006FF01FBC13060000C8
S11320D89306000013050A0093850900EF00503B9E
S11320E863540518B7070080930509001305D00247
S11320F8B3C93701E780040093071000232CF100CB
S11321080326C1018326010213050A0093850900E9
S1132118EF001038634E0514B747000003AC07AE50
S113212883AB47AE8327C101930C0109938A0C0042
S11321382328F10083270102930D0A001384090060
S11321482322F102B747000003AB07AF03AD47AF43
S113215823286103232AA1030326010183264102BC
S113216833889A4113850D0093050400232601053D
S113217823240105EF005028032781040328C10400
S113218863520522630208021304F8FF93551840AA
S1132198B3860C0113860C00330796419386F6FF29
S11321A86348B72613070400B747000003AD07AF19
S11321B883AD47AF13840C00930A0000130B00008F
S11321C803480400930509002328E10213050800C5
S11321D823220103E780040013060D0093860D00F3
S11321E813850A0093050B00EF10401A03284102D7
S11321F82328A100232AB100130508FDEF10400489
S1132208832641010326010113041400EF0000454D
S113221803270103B3069441930A0500138B0500B1
S1132228E350D7FA83278101130605009386050036
S11322381384170013050A00938509003304E40086
S1132248EF108052130A0500938905001306050050
S11322589386050013050C0093850B00EF0090236B
S1132268635AA0026FF0DFE5232C01006FF05FE9E9
S113227883278101930509001305000313841700BC
S1132288E7800400032C0104832B4104930A000013
S1132298130B0000930509001305E002E78004000E
S11322A8B747000003A787AE83A7C7AE130414007B
S11322B8130D0A00938C0900232CE1002328F10054
S11322C8130600009306000013850A0093050B000B
S11322D8EF00D01B630E050013060C0093860B0059
S11322E813050D0093850C00EF00D01AE35AA0DC07
S11322F8B747000003A607AF83A647AF13050A0034
S113230893850900EF108008B747000003A607AFBC
S113231883A647AF938D05002322A102130A050063
S11323289389050013050D0093850C00EF00D01E5A
S113233803274102130D0500938C050013050700BC
S113234893850D00EF00D067930D05001306000078
S11323589306000013850A0093050B00EF00101381
S11323686314050C63980D0C032681028326C102AD
S113237813050C0093850B00EF00101A130C0500CD
S1132388938B05009305A00013850D00EF10C0473B
S11323989305090013050503E780040013041400DA
S11323A86FF01FF29305040013850D002326B10571
S11323B823248104EF00D0609305A000EF10C044EB
S11323C80328C10403278104130505032380AA00F5
S11323D813060B0093060D00130508009305070068
S11323E8EF0090130326010383264103930D050090
S11323F81384050013050C0093850B00EF00107976
S1132408130C0500938B0500938A1A006FF0DFD430
S113241803C506000347060013061600A30FA6FE0D
S11324282380E6006FF05FD7832A8103032BC1035F
S11324386FF05FF5832A8101032B01016FF09FF48C
S1132448938B1B0003C5FBFF93050900E780040079
S11324586FF0CFCF8320C114032481140325010016
S113246883244114032901148329C113032A8113E2
S1132478832A4113032B0113832BC112032C8112CA
S1132488832C4112032D0112832DC111130101154F
S113249867800000130101FC2322B102B715000074
S11324A82324C1022326D102130600009306410205
S11324B89385C57B232E11002328E102232AF102E8
S11324C8232C0103232E11032326D100EFF04FB24E
S11324D88320C1011301010467800000030510B0C3
S11324E89377150063880704030600B09307300147
S11324F86318F60013071000A386E18067800000C4
S1132508930710016316F600A38601806780000014
S11325189386C18083C7060037470000130747B274
S11325283307F7009387170093F777002300C70052
S11325382380F60067800000130101FE232C81002C
S1132548232A9100232E1100130405002326B10029
S1132558EFF0DFF8137545008325C1006316050005
S113256883C7D18063800702E39205FE1305100038
S11325788320C10103248101832441011301010241
S113258867800000230080B06FF09FFE2300B50031
S11325988327050013F70710E30C07FE13F5F70F5D
S11325A867800000B747000083C707B2A300F5009F
S11325B88327050093F70710E38C07FE6780000064
S11325C8B747000083C707B2A300F500678000007F
S11325D8B74700002380A7B267800000130101FEFB
S11325E82328210103294500232A910023263101A8
S11325F8232E1100232C8100930405008329050050
S11326086306090413050900EF00804B130455FF02
S1132618130604001385090093050900EF00C0465A
S113262823A0A40013051000330585408320C101AD
S11326380324810123A2B400032901018324410155
S11326488329C10013010102678000001385090072
S1132658EF000047130505026FF05FFBB707008022
S113266893C7F7FFB3F8B700930FF5FF130101FC05
S11326781387F8FF33B8AF0023244103232C8101C7
S11326883308E800232E1102232C8102232A910205
S11326982328210323263103232251032320610302
S11326A8232E71013707F07F13030500138C0500EF
S11326B8130F0600138A0600930E0500130E060076
S11326C8B3F7D7006370E8181307F7FF6316E80039
S11326D81307E0FF6368F717930FFEFF1387F7FFED
S11326E833B8CF013308E8003707F07F6372E81A7C
S11326F81307F7FF6316E8001307E0FF636AF71987
S113270863EEF8006394170163EACE01130F030024
S1132718130A0C0013030600138C0600B7071000F5
S11327289387F7FF3377FA0013544A01B377FC0011
S113273813594C011374F47F2320E1012322E1008F
S1132748232461002326F1001379F97F6318040018
S113275813050100EFF09FE813040500631809004E
S113276813058100EFF09FE7130905008324010096
S113277883274100832A810013D7D4019397370014
S1132788B367F7000327C100B7090080B3F949010B
S1132798334C8A01370A8000B36BFA0013173700E9
S11327A893D7DA0133E7E7003309244193943400DB
S11327B8939A3A00336AEA006312091623245101F2
S11327C823264101032981008327C100635C0C1A75
S11327D833892441B3B52401B387FB40B384B7409C
S11327E82320210123229100B367990013050000D7
S11327F89305000063860706B707800063F8F402B0
S1132808638A041613850400EF00802B130A85FFDE
S113281813060A001305090093850400EF00C02677
S11328282320A1002322B100330444419307E07F0D
S113283863D0871AB705F07F13050000B3E53501A7
S11328486F0000023707F07F636617016392E8049C
S113285863800E04B705080013050300B3E585017A
S11328688320C1030324810383244103032901032F
S11328788329C102032A8102832A4102032B01020C
S1132888832BC101032C810113010104678000001B
S11328983707F07F6366F700639CE700630A0E005E
S11328A8B705080013050600B3E5D5006FF05FFB14
S11328B863960E023707F07F6392E802B346DC00A2
S11328C8E310C3FAB7070080E39CF6F8B7470000A3
S11328D803A587B183A5C7B16FF09FF863160E00EF
S11328E83707F07F638CE71833E71E013368FE006F
S11328F8631207021305060093850600E31208F61F
S11329083377C300B377DC0013050700938507000A
S11329186FF01FF5E31608DE6FF09FF49307F003DA
S113292863C02705130600043306264113850A00ED
S113293893050A00EF0040153365B500333BA0004A
S11329481306090013850A0093050A00EF0090187E
S11329583365AB002324A1002326B1006FF09FE662
S113296813071000930700002324E1002326F10035
S11329786FF05FE513050900EF00801413050502E5
S11329886FF0DFE833892401B387FB00B33499007F
S1132998B384F4009397740063C8070023202101CB
S11329A8232291006FF09FE8937719001397F4019D
S11329B8135919003369270193D4140033E9270103
S11329C82320210123229100130414006FF01FE631
S11329D863448004032A0100832A41001306F40394
S11329E813050A0093850A00EF00000A3365B50051
S11329F813061000B334A0003306864013050A00FA
S1132A0893850A00EF00100D33E5A4002320A100EC
S1132A182322B10013040000032741008326010088
S1132A28131444019317D701131797001357C700BA
S1132A38B369370113F676001307400093D63600BE
S1132A48B3E7D700336434016350C7021387170010
S1132A58B336F7009307070033848600138507000D
S1132A68930504006FF0DFDFE31AE6FE138717000F
S1132A78B336F7009377E7FF6FF01FFE13050600E0
S1132A88938506006FF0DFDD93770602638A0700FB
S1132A9813070000B315C50013050700678000007D
S1132AA8E30E06FE93070002B387C7403317C50039
S1132AB8B395C5003355F500B365B5006FF0DFFD78
S1132AC83707FFFF3377E5009336170093964600E0
S1132AD893070001B387D74037070100B357F500C0
S1132AE8130707F033F7E7001337170013173700F6
S1132AF8130580003305E540B3D7A70013F5070F86
S1132B0813351500131525003307D7009306400025
S1132B18B386A640B3D7D7003307E50013F5C7003B
S1132B28133515001306200013151500B306A64027
S1132B38B3D7D70093D6170093C6160093F616009A
S1132B48B306D040B307F640B3F7F6003305E50003
S1132B583385A70067800000370700801347F7FF15
S1132B683377B700B707F07F63E4E7086314F70027
S1132B7863100508370700801347F7FF3377D7003A
S1132B88B707F07F63E6E7066314F70063120606E7
S1132B9837080080B3E7B6001348F8FFB3F7070116
S1132BA83367A6003367F70093070000630407023E
S1132BB833F3B6006344030263C8D5026394B600D2
S1132BC86364C502B347A600B3C6B600B3E7D7002B
S1132BD8B337F000138507006780000063C6B600AA
S1132BE8E392D5FEE370A6FE9307F0FF6FF09FFE15
S1132BF8930710006FF01FFEB707008093C7F7FF15
S1132C0833F7D7003708F07FB3F7B700130305008D
S1132C18130506006368F806639407016314030642
S1132C28B707F07F63E0E7066314F700631C050445
S1132C383708008033E7B6001348F8FFB367660027
S1132C4833770701B3E7E70013050000638E070233
S1132C5833F5B6006342050263C6D5026394B60031
S1132C686362C3023346660033C5B6003365A60003
S1132C783335A0006780000063C6B600E394D5FE30
S1132C88E37266FE1305F0FF678000006FF0DFEC67
S1132C986FF09FEC6FF05FF6130101FE232821010A
S1132CA803294500232A910023263101232E1100EC
S1132CB8232C810093040500832905006306090475
S1132CC813050900EFF0DFDF130455FF13060400B2
S1132CD81385090093050900EFF01FDB23A0A40066
S1132CE813051000330585408320C10103248101A5
S1132CF823A2B40003290101832441018329C100CB
S1132D08130101026780000013850900EFF05FDBFF
S1132D18130505026FF05FFB130101FAB3C7D50071
S1132D2823263105B7090080B3F9F900B707100065
S1132D389387F7FF232A910493D4450133F7B70007
S1132D4893F4F47FB3F7D70023282105232AE1005D
S1132D5813D94601232EF100232E1104232C8104B8
S1132D68232441052322510523206105232E7103C1
S1132D78232C8103232A91032328A1032326B103A7
S1132D882328A100232CC1001387F4FF9307D07FC5
S1132D9813030500930806001379F97F63E6E70037
S1132DA81307F9FF63FCE73C370400801344F4FF7E
S1132DB8B377B4003707F07F130805006366F7009C
S1132DC8639CE704630A0304B707080013070500B4
S1132DD8B3E7B70013050700938507008320C105EF
S1132DE80324810583244105032901058329C1049A
S1132DF8032A8104832A4104032B0104832BC1037E
S1132E08032C8103832C4103032D0103832DC10269
S1132E1813010106678000003374D400B705F07FFE
S1132E281307060063E68500631CB400638A080080
S1132E38B707080013070600B3E7D7006FF09FF938
S1132E4863120802B706F07F639ED7006314070075
S1132E58630EF402B707F07F13070000B3E73701E6
S1132E686FF05FF7631C07003707F07F6318E4000F
S1132E7813070000938709006FF0DFF533E5A70017
S1132E883366C400631C0500E31406FEB74700005C
S1132E9803A587B183A5C7B16FF05FF4E30C06FA05
S1132EA837071000930A000063F8E70013050101CF
S1132EB8EFF09FDE930A0500B70710006378F4006B
S1132EC813058101EFF05FDDB38AAA40832BC101AA
S1132ED8032A8101832D4101B7071000B3EBFB00DE
S1132EE8B3EDFD00338924419397BB00135B5A016A
S1132EF8B7F4047533EB670193843433B3846441C2
S1132F0813060B00930600001385040093050000C4
S1132F18EF005024138604003305B04093060000E4
S1132F2893050000EF001023939515009354F501C1
S1132F38B3E4950013060B00930600001385040000
S1132F4893050000EF001021138604003305B040F8
S1132F589306000093050000EF00D01F9395150019
S1132F689354F501B3E49500138604009306000016
S1132F7813050B0093050000EF00D01D1386040011
S1132F883305B0409306000093050000EF00901C41
S1132F98939515001355F50133E5A5003309590137
S1132FA8930AF5FF13860A00930600001315BA0066
S1132FB893050000EF00101A9384050013060B0014
S1132FC89306000013850A0093050000EF0090188B
S1132FD83385A400B3349500B384B4003305A0400A
S1132FE8B335A000B3049040B384B44013860A00F8
S1132FF89306000093050000EF00D015138B05001D
S113300813860A0093060000138504009305000044
S1133018EF005014032401019304E5FF33B5A40021
S11330289385F5FFB3049B003305B50033BB6401F6
S11330389357E401939D2D00B30CAB00B3EDB70196
S1133048931724001385070013860C0093060000C9
S1133058930500002326F100EF00D00F930A050022
S1133068138D050013860D009306000013850400D4
S113307893050000EF00100E8327C100130B050011
S11330881386040013850700138C050093060000BB
S113309893050000EF00100C33855501B30A650150
S11330A8B335B500B3BAAA00B38ABA0013860D00C3
S11330B89306000013850C0093050000330BAC0144
S11330C8EF005009333DAB013305AB00333B6501D9
S11330D8330DBD003385AA00B3345501330BAB015E
S11330E8B3846401B7072000930A050063FCF4085D
S11330F8130605009386040013050A0093850B0044
S1133108EF005005131454013305A040B337A00051
S1133118B305B440B385F5401309F9FF1309F93F22
S11331289307E07FE3C827D3E35420D5B7071000FB
S11331389387F7FFB3F4F400939515009357F501BB
S113314813194901B3E5B70033699900131515003C
S11331589307100063E8BB00639475016364AA00D5
S113316893070000B38A5701B3B7FA0033892701DC
S113317813870A00B36739016FF0DFC5930A0000AB
S11331886FF0DFD49397F401935A1500B3EA57010B
S113319893D4140013860A009386040013050A00C6
S11331A893850B00EF00007B131444013305A04002
S11331B8B337A000B305B440B385F5406FF01FF6EC
S11331C8130101FF23248100232611001304100096
S11331D863D405001304F0FFB707100013D74501A3
S11331E81386F7FF1377F77FB375B600B3E5B70017
S11331F8930617C09307300363EAD7021306400304
S11332083306D640EF00000D9305050013050400AE
S1133218EF00C071930705008320C10003248100D7
S1133228138507001301010167800000930700005C
S1133238E3C406FE1306D7BCEFF01F856FF0DFFC6E
S113324863040508130101FF23248100232291004C
S113325823261100232021011304050093040000F0
S1133268635605003304A040B70400801305040026
S1133278EFF01F8513090500130655019355F44112
S113328813050400EFF05F809307E041370710004F
S1133298B3872741B345B700939747018320C100FB
S11332A803248100B385B700B3E79500130705002D
S11332B883244100032901001305070093850700AF
S11332C81301010167800000130500009305000045
S11332D86780000093770602638A070013070000DB
S11332E833D5C5009305070067800000E30E06FE8A
S11332F893070002B387C74033D7C5003355C500C9
S1133308B395F50033E5A5006FF0DFFD130101FE69
S11333182328210103294500232A9100232631016A
S1133328232E1100232C8100930405008329050012
S11333386306090413050900EFF08FF8130455FF19
S1133348130604001385090093050900EFF0CFF371
S113335823A0A40013051000330585408320C10170
S11333680324810123A2B400032901018324410118
S11333788329C10013010102678000001385090035
S1133388EFF00FF4130505026FF05FFB130101FB67
S1133398B3C7D500232A5103B70A0080B3FAFA0049
S11333A8B70710009387F7FF232C410313DA45016D
S11333B833F7B700137AFA7FB3F7D7002320210530
S11333C82322E10013D946012326F1002326110400
S11333D82324810423229104232E31032328610307
S11333E82326710323248103232291032320A10389
S11333F8232EB1012320A1002324C1001307FAFFBF
S11334089307D07F13030500930806001379F97F07
S113341863E6E7001307F9FF63F4E7223704008043
S11334281344F4FFB377B4003707F07F130805009B
S11334386366F700639CE704630A0304B70708009C
S113344813070500B3E7B7001305070093850700C2
S11334588320C1040324810483244104032901042F
S11334688329C103032A8103832A4103032B01030C
S1133478832BC102032C8102832C4102032D0102F8
S1133488832DC10113010105678000003374D40042
S11334983707F07F9305060063668700631CE40022
S11334A8638A0800B707080013070600B3E7D700C4
S11334B86FF09FF9631408023707F07F6390E702FF
S11334C83364C400630A04289306000033E75701F1
S11334D813850600930507006FF09FF733E5A700EF
S11334E8639E05003707F07F631AE4006306052628
S11334F813070000B36754016FF01FF56318050044
S11335081307000093870A006FF01FF43366C400A2
S1133518E30806FE37071000130C000063F8E70001
S113352813050100EFF09FDE130C0500B707100028
S11335386378F40013058100EFF05FDD330CAC0011
S1133548832481008329C100032B010093D75401EC
S11335589399B9009394B400B3E9370113060B00A7
S1133568930600001385040093050000370D0080BE
S1133578EF00403E336D3D011384050013060B0034
S1133588930C05009306000013050D009305000035
S1133598EF00403C83274100B70D1000130B0500D2
S11335A8B3EDFD00938B050013860D009306000010
S11335B81385040093050000EF00C0393305850026
S11335C8330B6501B3378500938405003334AB00AE
S11335D813860D009306000013050D0093050000E3
S11335E83304F400EF000037B307950033877701FD
S11335F833B5A7003305B500B337F70033048700A4
S1133608B387A700B334E400B384F400130619C0E5
S1133618330646019397B40093890C003306860158
S113362863D40702130616009307E07F63D4C70424
S1133638B707F07F13070000B3E757016FF0DFE027
S1133648130C00006FF0DFEF9357F4019394140008
S11336581357FB0113141400B3E49700131B1B0046
S113366893D7FC013364E40093991C0033EB67019E
S11336786FF09FFB6348C00A130A1000330ACA405C
S11336889307F003E3CE47E71309F603130609008B
S11336981305040093850400EFF00FBF130C050015
S11336A8938B050013060A001385090093050B0084
S11336B8EFF05FC2336CAC00B3EBBB001306090038
S11336C81385090093050B00EFF00FBCB369B5002F
S11336D813060A001305040093850400EFF09FBF46
S11336E8B3393001B3693C01138B0B001304050093
S11336F813860500370700809307040033E6CA00E1
S113370863666701631CEB02638C09029307140068
S113371833B487003306C4009386070013070600F2
S11337286FF01FDBB70510009385F5FFB3F4B40001
S11337381316460133E6C4006FF0DFFBE39E09FC71
S113374837070080E31AEBFC9307140033B48700AF
S113375893F7E7FF6FF01FFCB747000003A587B195
S113376883A5C7B16FF0DFCEB70700801307060043
S1133778B3C7D70013060700938607006FE01FEE50
S113378893771600130705006386070063CE0504C4
S1133798634807049307100063F0E5026346B0002A
S11337A86F0080016358B000939515009397170034
S11337B8E3EAE5FE63800704130500006366B700C7
S11337C83307B7403365F50093D7170093D5150031
S11337D8E39607FE1376260063140602678000004A
S11337E83307E0406FF01FFBB305B040E35407FA1A
S11337F86FF01FFF1376260013050000E30006FE92
S11338081305070067800000130630006FF05FF7A8
S1133818B367D600937E1700B337F000130800008F
S113382863880E0263D406063306C040B338C0006A
S1133838B306D040B386164163DC05003305A040C7
S1133848B338A000B305B040B385154193CE1E002C
S113385863E2B6046394D500636EA6021303000002
S11338689308000033EE0701631E0E041377270044
S11338786314070A638E0E0833056040B335A0004D
S1133888B3081041B385B84067800000930E000068
S11338986FF09FFA6346D000E39206FCE30006FC4F
S11338A89358F60193961600B3E6D8001318180037
S11338B893D8F7011316160033E8080193971700F5
S11338C86FF01FF963E4D5026394B6006360C50220
S11338D8330EC540333FC501B385D54013050E00EB
S11338E8B385E5413363F300B3E80801131EF80117
S11338F893D71700B367FE0013561600139EF601FC
S1133908135818003366CE0093D616006FF09FF54F
S1133918130503009385080067800000130700005F
S11339286FF01FEF130720006FF09FEE930700005E
S113393863960500138507006780000013F71500D8
S113394863040700B387A70093D515001315150062
S11339586FF01FFE1308050093070000130500000D
S11339683367D60063160700938507006780000055
S113397813771600630C070033070501B338A70053
S1133988B387B70013050700B387F8001397F60148
S1133998135616009358F8013366C7001397150099
S11339A893D61600B3E5E800131818006FF05FFB10
S11339B8381700006416000064160000D4160000CE
S11339C8641600006416000064160000281700003E
S11339D864160000641600006416000064160000F3
S11339E864160000641600006417000064160000E2
S11339F8F8150000641600008C1700006416000017
S1133A086416000094160000636F6465203D20303E
S1133A1878253034580A626567696E203D2030780D
S1133A28253034580A656E64203D203078253034BA
S1133A38580A0000577269746564210A000000007E
S1133A48426C6F636B20657261736564210A0000C0
S1133A58536563746F7220657261736564210A002B
S1133A684368697020657261736564210A00000007
S1133A785265736574696E672E2E2E0A0000000065
S1133A8863705B3078253034585D203D20307825CC
S1133A983032580A0000000063203D203078253079
S1133AA832580A00307825303258202D3E2030789C
S1133AB8253032580A0000002564203D203078253E
S1133AC83032580A0000000052445352203D20303E
S1133AD878253032580A0000956479E17FFDA53DC8
S1133AE8000000000000F03F000000000000244037
S1133AF8000000000000594028666D74206E756C43
S1133B086C290A00286E756C6C29000000000000FE
S10B3B18000000000000F87F2A
S1043B208020
S9031000EC
